{
  "contractName": "Deal",
  "abi": [
    {
      "inputs": [],
      "stateMutability": "nonpayable",
      "type": "constructor"
    },
    {
      "anonymous": false,
      "inputs": [
        {
          "indexed": false,
          "internalType": "address",
          "name": "buyer",
          "type": "address"
        },
        {
          "indexed": false,
          "internalType": "uint256",
          "name": "orderid",
          "type": "uint256"
        }
      ],
      "name": "orderApproved",
      "type": "event"
    },
    {
      "anonymous": false,
      "inputs": [
        {
          "indexed": false,
          "internalType": "address",
          "name": "buyer",
          "type": "address"
        },
        {
          "indexed": false,
          "internalType": "uint256",
          "name": "orderid",
          "type": "uint256"
        }
      ],
      "name": "orderDelivered",
      "type": "event"
    },
    {
      "anonymous": false,
      "inputs": [
        {
          "indexed": false,
          "internalType": "address",
          "name": "buyer",
          "type": "address"
        },
        {
          "indexed": false,
          "internalType": "uint256",
          "name": "orderid",
          "type": "uint256"
        }
      ],
      "name": "orderDenied",
      "type": "event"
    },
    {
      "anonymous": false,
      "inputs": [
        {
          "indexed": false,
          "internalType": "address",
          "name": "buyer",
          "type": "address"
        },
        {
          "indexed": false,
          "internalType": "uint256",
          "name": "orderid",
          "type": "uint256"
        },
        {
          "indexed": false,
          "internalType": "string",
          "name": "product",
          "type": "string"
        },
        {
          "indexed": false,
          "internalType": "uint256",
          "name": "price",
          "type": "uint256"
        },
        {
          "indexed": false,
          "internalType": "uint256",
          "name": "pay",
          "type": "uint256"
        },
        {
          "indexed": false,
          "internalType": "bool",
          "name": "init",
          "type": "bool"
        },
        {
          "indexed": false,
          "internalType": "bool",
          "name": "denied",
          "type": "bool"
        },
        {
          "indexed": false,
          "internalType": "bool",
          "name": "payed",
          "type": "bool"
        }
      ],
      "name": "orderPayed",
      "type": "event"
    },
    {
      "anonymous": false,
      "inputs": [
        {
          "indexed": false,
          "internalType": "address",
          "name": "buyer",
          "type": "address"
        },
        {
          "indexed": false,
          "internalType": "uint256",
          "name": "orderid",
          "type": "uint256"
        },
        {
          "indexed": false,
          "internalType": "string",
          "name": "product",
          "type": "string"
        },
        {
          "indexed": false,
          "internalType": "uint256",
          "name": "price",
          "type": "uint256"
        },
        {
          "indexed": false,
          "internalType": "uint256",
          "name": "pay",
          "type": "uint256"
        },
        {
          "indexed": false,
          "internalType": "bool",
          "name": "init",
          "type": "bool"
        },
        {
          "indexed": false,
          "internalType": "bool",
          "name": "denied",
          "type": "bool"
        },
        {
          "indexed": false,
          "internalType": "bool",
          "name": "payed",
          "type": "bool"
        }
      ],
      "name": "orderSent",
      "type": "event"
    },
    {
      "anonymous": false,
      "inputs": [
        {
          "indexed": false,
          "internalType": "address",
          "name": "buyer",
          "type": "address"
        },
        {
          "indexed": false,
          "internalType": "uint256",
          "name": "orderid",
          "type": "uint256"
        }
      ],
      "name": "shipmentAdded",
      "type": "event"
    },
    {
      "inputs": [],
      "name": "owner",
      "outputs": [
        {
          "internalType": "address",
          "name": "",
          "type": "address"
        }
      ],
      "stateMutability": "view",
      "type": "function",
      "constant": true
    },
    {
      "inputs": [
        {
          "internalType": "string",
          "name": "product",
          "type": "string"
        }
      ],
      "name": "sendOrder",
      "outputs": [],
      "stateMutability": "nonpayable",
      "type": "function"
    },
    {
      "inputs": [
        {
          "internalType": "uint256",
          "name": "orderid",
          "type": "uint256"
        }
      ],
      "name": "initOrder",
      "outputs": [],
      "stateMutability": "nonpayable",
      "type": "function"
    },
    {
      "inputs": [
        {
          "internalType": "uint256",
          "name": "orderid",
          "type": "uint256"
        }
      ],
      "name": "denyOrder",
      "outputs": [],
      "stateMutability": "nonpayable",
      "type": "function"
    },
    {
      "inputs": [
        {
          "internalType": "uint256",
          "name": "orderid",
          "type": "uint256"
        }
      ],
      "name": "sendPay",
      "outputs": [],
      "stateMutability": "payable",
      "type": "function",
      "payable": true
    },
    {
      "inputs": [
        {
          "internalType": "uint256",
          "name": "orderid",
          "type": "uint256"
        },
        {
          "internalType": "address",
          "name": "courier",
          "type": "address"
        },
        {
          "internalType": "uint256",
          "name": "price",
          "type": "uint256"
        },
        {
          "internalType": "uint256",
          "name": "shipment_price",
          "type": "uint256"
        }
      ],
      "name": "addShipment",
      "outputs": [],
      "stateMutability": "nonpayable",
      "type": "function"
    },
    {
      "inputs": [
        {
          "internalType": "uint256",
          "name": "orderid",
          "type": "uint256"
        }
      ],
      "name": "delivered",
      "outputs": [],
      "stateMutability": "payable",
      "type": "function",
      "payable": true
    },
    {
      "inputs": [
        {
          "internalType": "uint256",
          "name": "_orderid",
          "type": "uint256"
        }
      ],
      "name": "queryOrder",
      "outputs": [
        {
          "internalType": "address",
          "name": "buyer",
          "type": "address"
        },
        {
          "internalType": "string",
          "name": "product",
          "type": "string"
        },
        {
          "internalType": "uint256",
          "name": "price",
          "type": "uint256"
        },
        {
          "internalType": "uint256",
          "name": "pay",
          "type": "uint256"
        },
        {
          "internalType": "bool",
          "name": "init",
          "type": "bool"
        },
        {
          "internalType": "bool",
          "name": "denied",
          "type": "bool"
        },
        {
          "internalType": "bool",
          "name": "payed",
          "type": "bool"
        }
      ],
      "stateMutability": "view",
      "type": "function",
      "constant": true
    }
  ],
  "bytecode": "0x6080604052600160025534801561001557600080fd5b50336000806101000a81548173ffffffffffffffffffffffffffffffffffffffff021916908373ffffffffffffffffffffffffffffffffffffffff1602179055506116d5806100656000396000f3fe60806040526004361061007b5760003560e01c806384f58b471161004e57806384f58b471461010a5780638da5cb5b1461013357806390259dd51461015e578063c5cc426a146101875761007b565b806315cad61a1461008057806325fcba48146100a95780633a7f0fcf146100d25780634b5e4108146100ee575b600080fd5b34801561008c57600080fd5b506100a760048036038101906100a29190610f90565b6101ca565b005b3480156100b557600080fd5b506100d060048036038101906100cb9190611103565b6102f0565b005b6100ec60048036038101906100e79190610f90565b61053b565b005b61010860048036038101906101039190610f90565b6107a0565b005b34801561011657600080fd5b50610131600480360381019061012c9190610f90565b6109f3565b005b34801561013f57600080fd5b50610148610b19565b604051610155919061118d565b60405180910390f35b34801561016a57600080fd5b50610185600480360381019061018091906111d4565b610b3d565b005b34801561019357600080fd5b506101ae60048036038101906101a99190610f90565b610ce7565b6040516101c197969594939291906112ed565b60405180910390f35b60008054906101000a900473ffffffffffffffffffffffffffffffffffffffff1673ffffffffffffffffffffffffffffffffffffffff163373ffffffffffffffffffffffffffffffffffffffff161461022257600080fd5b6001600082815260200190815260200160002060070160019054906101000a900460ff161561025057600080fd5b600180600083815260200190815260200160002060070160006101000a81548160ff0219169083151502179055507f594c9c778747ba792378bdf72964686019ed144b5299de901648736fbc4801076001600083815260200190815260200160002060000160009054906101000a900473ffffffffffffffffffffffffffffffffffffffff16826040516102e5929190611363565b60405180910390a150565b6040518061012001604052803373ffffffffffffffffffffffffffffffffffffffff168152602001600254815260200182815260200160008152602001600081526020016040518060400160405280600073ffffffffffffffffffffffffffffffffffffffff168152602001600081525081526020016000151581526020016000151581526020016000151581525060016000600254815260200190815260200160002060008201518160000160006101000a81548173ffffffffffffffffffffffffffffffffffffffff021916908373ffffffffffffffffffffffffffffffffffffffff160217905550602082015181600101556040820151816002019080519060200190610401929190610ea3565b50606082015181600301556080820151816004015560a08201518160050160008201518160000160006101000a81548173ffffffffffffffffffffffffffffffffffffffff021916908373ffffffffffffffffffffffffffffffffffffffff16021790555060208201518160010155505060c08201518160070160006101000a81548160ff02191690831515021790555060e08201518160070160016101000a81548160ff0219169083151502179055506101008201518160070160026101000a81548160ff0219169083151502179055509050507feee1324a3853f48f4ca2e142f28da46d3eaf9a722c7140dab2c6424d303c2f47336002548360008060008060006040516105189897969594939291906113d1565b60405180910390a16002600081548092919061053390611485565b919050555050565b3373ffffffffffffffffffffffffffffffffffffffff166001600083815260200190815260200160002060000160009054906101000a900473ffffffffffffffffffffffffffffffffffffffff1673ffffffffffffffffffffffffffffffffffffffff16146105a957600080fd5b6001600082815260200190815260200160002060070160009054906101000a900460ff166105d657600080fd5b346001600083815260200190815260200160002060040160008282546105fc91906114ce565b925050819055506001600082815260200190815260200160002060050160010154600160008381526020019081526020016000206003015461063e91906114ce565b6001600083815260200190815260200160002060040154141561068a57600180600083815260200190815260200160002060070160026101000a81548160ff0219169083151502179055505b7fa18596abea3d530e70cc8152c68912ec71ad3cbf221b326307d186066ad9efb6338260016000858152602001908152602001600020600201600160008681526020019081526020016000206005016001015460016000878152602001908152602001600020600301546106fe91906114ce565b60016000878152602001908152602001600020600401546001600088815260200190815260200160002060070160009054906101000a900460ff166001600089815260200190815260200160002060070160019054906101000a900460ff16600160008a815260200190815260200160002060070160029054906101000a900460ff1660405161079598979695949392919061161a565b60405180910390a150565b6001600082815260200190815260200160002060050160000160009054906101000a900473ffffffffffffffffffffffffffffffffffffffff1673ffffffffffffffffffffffffffffffffffffffff163373ffffffffffffffffffffffffffffffffffffffff161461081157600080fd5b6001600082815260200190815260200160002060070160009054906101000a900460ff1661083e57600080fd5b6001600082815260200190815260200160002060070160029054906101000a900460ff1661086b57600080fd5b7f01d7b3eff45d42858d22ded7901d1fbcfb82acb487ec59de32dd55d3de7177fa6001600083815260200190815260200160002060000160009054906101000a900473ffffffffffffffffffffffffffffffffffffffff16826040516108d2929190611363565b60405180910390a160008054906101000a900473ffffffffffffffffffffffffffffffffffffffff1673ffffffffffffffffffffffffffffffffffffffff166108fc60016000848152602001908152602001600020600301549081150290604051600060405180830381858888f19350505050158015610956573d6000803e3d6000fd5b506001600082815260200190815260200160002060050160000160009054906101000a900473ffffffffffffffffffffffffffffffffffffffff1673ffffffffffffffffffffffffffffffffffffffff166108fc60016000848152602001908152602001600020600501600101549081150290604051600060405180830381858888f193505050501580156109ef573d6000803e3d6000fd5b5050565b60008054906101000a900473ffffffffffffffffffffffffffffffffffffffff1673ffffffffffffffffffffffffffffffffffffffff163373ffffffffffffffffffffffffffffffffffffffff1614610a4b57600080fd5b6001600082815260200190815260200160002060070160009054906101000a900460ff1615610a7957600080fd5b600180600083815260200190815260200160002060070160016101000a81548160ff0219169083151502179055507f852c7a6e11c072e11fc31e7aa4f5501fbe35fc9e9eeadaa58b804ea1b6ecafec6001600083815260200190815260200160002060000160009054906101000a900473ffffffffffffffffffffffffffffffffffffffff1682604051610b0e929190611363565b60405180910390a150565b60008054906101000a900473ffffffffffffffffffffffffffffffffffffffff1681565b60008054906101000a900473ffffffffffffffffffffffffffffffffffffffff1673ffffffffffffffffffffffffffffffffffffffff163373ffffffffffffffffffffffffffffffffffffffff1614610b9557600080fd5b6001600085815260200190815260200160002060070160009054906101000a900460ff16610bc257600080fd5b81600160008681526020019081526020016000206003018190555060405180604001604052808473ffffffffffffffffffffffffffffffffffffffff168152602001828152506001600086815260200190815260200160002060050160008201518160000160006101000a81548173ffffffffffffffffffffffffffffffffffffffff021916908373ffffffffffffffffffffffffffffffffffffffff160217905550602082015181600101559050507f48e62890e134c30da1cc8978ac086b57b2b2de30ebe7366dc867e9cbc6311df36001600086815260200190815260200160002060000160009054906101000a900473ffffffffffffffffffffffffffffffffffffffff1685604051610cd9929190611363565b60405180910390a150505050565b6000606060008060008060006001600089815260200190815260200160002060000160009054906101000a900473ffffffffffffffffffffffffffffffffffffffff16600160008a8152602001908152602001600020600201600160008b815260200190815260200160002060050160010154600160008c815260200190815260200160002060030154610d7b91906114ce565b600160008c815260200190815260200160002060040154600160008d815260200190815260200160002060070160009054906101000a900460ff16600160008e815260200190815260200160002060070160019054906101000a900460ff16600160008f815260200190815260200160002060070160029054906101000a900460ff16858054610e0a90611553565b80601f0160208091040260200160405190810160405280929190818152602001828054610e3690611553565b8015610e835780601f10610e5857610100808354040283529160200191610e83565b820191906000526020600020905b815481529060010190602001808311610e6657829003601f168201915b505050505095509650965096509650965096509650919395979092949650565b828054610eaf90611553565b90600052602060002090601f016020900481019282610ed15760008555610f18565b82601f10610eea57805160ff1916838001178555610f18565b82800160010185558215610f18579182015b82811115610f17578251825591602001919060010190610efc565b5b509050610f259190610f29565b5090565b5b80821115610f42576000816000905550600101610f2a565b5090565b6000604051905090565b600080fd5b600080fd5b6000819050919050565b610f6d81610f5a565b8114610f7857600080fd5b50565b600081359050610f8a81610f64565b92915050565b600060208284031215610fa657610fa5610f50565b5b6000610fb484828501610f7b565b91505092915050565b600080fd5b600080fd5b6000601f19601f8301169050919050565b7f4e487b7100000000000000000000000000000000000000000000000000000000600052604160045260246000fd5b61101082610fc7565b810181811067ffffffffffffffff8211171561102f5761102e610fd8565b5b80604052505050565b6000611042610f46565b905061104e8282611007565b919050565b600067ffffffffffffffff82111561106e5761106d610fd8565b5b61107782610fc7565b9050602081019050919050565b82818337600083830152505050565b60006110a66110a184611053565b611038565b9050828152602081018484840111156110c2576110c1610fc2565b5b6110cd848285611084565b509392505050565b600082601f8301126110ea576110e9610fbd565b5b81356110fa848260208601611093565b91505092915050565b60006020828403121561111957611118610f50565b5b600082013567ffffffffffffffff81111561113757611136610f55565b5b611143848285016110d5565b91505092915050565b600073ffffffffffffffffffffffffffffffffffffffff82169050919050565b60006111778261114c565b9050919050565b6111878161116c565b82525050565b60006020820190506111a2600083018461117e565b92915050565b6111b18161116c565b81146111bc57600080fd5b50565b6000813590506111ce816111a8565b92915050565b600080600080608085870312156111ee576111ed610f50565b5b60006111fc87828801610f7b565b945050602061120d878288016111bf565b935050604061121e87828801610f7b565b925050606061122f87828801610f7b565b91505092959194509250565b600081519050919050565b600082825260208201905092915050565b60005b8381101561127557808201518184015260208101905061125a565b83811115611284576000848401525b50505050565b60006112958261123b565b61129f8185611246565b93506112af818560208601611257565b6112b881610fc7565b840191505092915050565b6112cc81610f5a565b82525050565b60008115159050919050565b6112e7816112d2565b82525050565b600060e082019050611302600083018a61117e565b8181036020830152611314818961128a565b905061132360408301886112c3565b61133060608301876112c3565b61133d60808301866112de565b61134a60a08301856112de565b61135760c08301846112de565b98975050505050505050565b6000604082019050611378600083018561117e565b61138560208301846112c3565b9392505050565b6000819050919050565b6000819050919050565b60006113bb6113b66113b18461138c565b611396565b610f5a565b9050919050565b6113cb816113a0565b82525050565b6000610100820190506113e7600083018b61117e565b6113f4602083018a6112c3565b8181036040830152611406818961128a565b905061141560608301886113c2565b61142260808301876113c2565b61142f60a08301866112de565b61143c60c08301856112de565b61144960e08301846112de565b9998505050505050505050565b7f4e487b7100000000000000000000000000000000000000000000000000000000600052601160045260246000fd5b600061149082610f5a565b91507fffffffffffffffffffffffffffffffffffffffffffffffffffffffffffffffff8214156114c3576114c2611456565b5b600182019050919050565b60006114d982610f5a565b91506114e483610f5a565b9250827fffffffffffffffffffffffffffffffffffffffffffffffffffffffffffffffff0382111561151957611518611456565b5b828201905092915050565b7f4e487b7100000000000000000000000000000000000000000000000000000000600052602260045260246000fd5b6000600282049050600182168061156b57607f821691505b6020821081141561157f5761157e611524565b5b50919050565b60008190508160005260206000209050919050565b600081546115a781611553565b6115b18186611246565b945060018216600081146115cc57600181146115de57611611565b60ff1983168652602086019350611611565b6115e785611585565b60005b83811015611609578154818901526001820191506020810190506115ea565b808801955050505b50505092915050565b600061010082019050611630600083018b61117e565b61163d602083018a6112c3565b818103604083015261164f818961159a565b905061165e60608301886112c3565b61166b60808301876112c3565b61167860a08301866112de565b61168560c08301856112de565b61169260e08301846112de565b999850505050505050505056fea26469706673582212208674fa55baf87ef8c40ea43aef34c6737345e0d0f975ae7fe396e14b205bc42464736f6c634300080a0033",
  "immutableReferences": {},
  "source": "// SPDX-License-Identifier: MIT\npragma solidity >=0.8.9;\n\ncontract Deal {\n  address public owner;\n\n  struct Shipment {\n    address courier;\n    uint price;\n  }\n\n  struct Order {\n    address buyer;\n    uint orderid;\n    string product;\n    uint price;\n    uint pay;\n    Shipment shipment;\n\n    bool init;\n    bool denied;\n    bool payed;\n  }\n\n  constructor() {\n    owner = msg.sender;\n  }\n\n  mapping (uint => Order) orders;\n\n  uint orders_size = 1;\n\n  event orderSent(address buyer, uint orderid, string product, uint price, uint pay, bool init, bool denied, bool payed);\n  event orderApproved(address buyer, uint orderid);\n  event orderDenied(address buyer, uint orderid);\n  event shipmentAdded(address buyer, uint orderid);\n  event orderDelivered(address buyer, uint orderid);\n  event orderPayed(address buyer, uint orderid, string product, uint price, uint pay, bool init, bool denied, bool payed);\n\n  function sendOrder(string memory product) external  {\n\n    orders[orders_size] = Order(msg.sender, orders_size, product, 0, 0, Shipment(address(0), 0), false, false, false);\n\n    emit orderSent(msg.sender, orders_size, product, 0, 0, false, false, false);\n    orders_size++;\n  }\n\n  function initOrder(uint orderid) external {\n    require(msg.sender == owner);\n    require(!(orders[orderid].denied));\n\n    orders[orderid].init = true;\n\n    emit orderApproved(orders[orderid].buyer, orderid);\n  }\n  function denyOrder(uint orderid) external {\n    require(msg.sender == owner);\n    require(!(orders[orderid].init));\n    orders[orderid].denied = true;\n\n    emit orderDenied(orders[orderid].buyer, orderid);\n  }\n\n  function sendPay(uint orderid) payable public {\n    require(orders[orderid].buyer == msg.sender);\n\n    require(orders[orderid].init);\n\n    orders[orderid].pay += msg.value;\n\n    if(orders[orderid].pay == orders[orderid].price + orders[orderid].shipment.price){\n      orders[orderid].payed = true;\n    }\n\n    emit orderPayed(msg.sender, orderid, orders[orderid].product, orders[orderid].price + orders[orderid].shipment.price, orders[orderid].pay, orders[orderid].init, orders[orderid].denied, orders[orderid].payed);\n  }\n\n  function addShipment(uint orderid, address courier, uint price, uint shipment_price) external {\n    require(msg.sender == owner);\n    require(orders[orderid].init);\n\n    orders[orderid].price = price;\n    orders[orderid].shipment = Shipment(courier, shipment_price);\n\n    emit shipmentAdded(orders[orderid].buyer, orderid);\n  }\n\n  function delivered(uint orderid) external payable {\n    require(msg.sender == orders[orderid].shipment.courier);\n    require(orders[orderid].init);\n    require(orders[orderid].payed);\n\n    emit orderDelivered(orders[orderid].buyer, orderid);\n\n    payable(owner).transfer(orders[orderid].price);\n\n    payable(orders[orderid].shipment.courier).transfer(orders[orderid].shipment.price);\n  }\n\n  function queryOrder(uint _orderid) external view returns (address buyer, string memory product, uint price, uint pay, bool init, bool denied, bool payed){\n    return (orders[_orderid].buyer, orders[_orderid].product, (orders[_orderid].price + orders[_orderid].shipment.price), orders[_orderid].pay, orders[_orderid].init, orders[_orderid].denied, orders[_orderid].payed);  \n  }\n}\n",
  "sourcePath": "C:\\Users\\stolo\\Desktop\\uni\\blockchain\\Dapp\\contracts\\Deal.sol",
  "compiler": {
    "name": "solc",
    "version": "0.8.10+commit.fc410830.Emscripten.clang"
  },
  "schemaVersion": "3.4.3",
  "updatedAt": "2022-01-08T14:21:09.657Z",
  "networkType": "ethereum",
  "devdoc": {
    "kind": "dev",
    "methods": {},
    "version": 1
  },
  "userdoc": {
    "kind": "user",
    "methods": {},
    "version": 1
  }
}