{
  "contractName": "Deal",
  "abi": [
    {
      "inputs": [],
      "stateMutability": "nonpayable",
      "type": "constructor"
    },
    {
      "anonymous": false,
      "inputs": [
        {
          "indexed": false,
          "internalType": "address",
          "name": "buyer",
          "type": "address"
        },
        {
          "indexed": false,
          "internalType": "uint256",
          "name": "orderid",
          "type": "uint256"
        }
      ],
      "name": "orderApproved",
      "type": "event"
    },
    {
      "anonymous": false,
      "inputs": [
        {
          "indexed": false,
          "internalType": "address",
          "name": "buyer",
          "type": "address"
        },
        {
          "indexed": false,
          "internalType": "uint256",
          "name": "orderid",
          "type": "uint256"
        }
      ],
      "name": "orderDelivered",
      "type": "event"
    },
    {
      "anonymous": false,
      "inputs": [
        {
          "indexed": false,
          "internalType": "address",
          "name": "buyer",
          "type": "address"
        },
        {
          "indexed": false,
          "internalType": "uint256",
          "name": "orderid",
          "type": "uint256"
        },
        {
          "indexed": false,
          "internalType": "string",
          "name": "product",
          "type": "string"
        }
      ],
      "name": "orderSent",
      "type": "event"
    },
    {
      "anonymous": false,
      "inputs": [
        {
          "indexed": false,
          "internalType": "address",
          "name": "buyer",
          "type": "address"
        },
        {
          "indexed": false,
          "internalType": "uint256",
          "name": "orderid",
          "type": "uint256"
        }
      ],
      "name": "shipmentAdded",
      "type": "event"
    },
    {
      "inputs": [],
      "name": "owner",
      "outputs": [
        {
          "internalType": "address",
          "name": "",
          "type": "address"
        }
      ],
      "stateMutability": "view",
      "type": "function",
      "constant": true
    },
    {
      "inputs": [
        {
          "internalType": "string",
          "name": "product",
          "type": "string"
        }
      ],
      "name": "sendOrder",
      "outputs": [],
      "stateMutability": "nonpayable",
      "type": "function"
    },
    {
      "inputs": [
        {
          "internalType": "uint256",
          "name": "orderid",
          "type": "uint256"
        }
      ],
      "name": "initOrder",
      "outputs": [],
      "stateMutability": "nonpayable",
      "type": "function"
    },
    {
      "inputs": [
        {
          "internalType": "uint256",
          "name": "orderid",
          "type": "uint256"
        },
        {
          "internalType": "address",
          "name": "_courier",
          "type": "address"
        },
        {
          "internalType": "uint256",
          "name": "price",
          "type": "uint256"
        }
      ],
      "name": "addShipment",
      "outputs": [],
      "stateMutability": "nonpayable",
      "type": "function"
    },
    {
      "inputs": [
        {
          "internalType": "uint256",
          "name": "orderid",
          "type": "uint256"
        }
      ],
      "name": "delivered",
      "outputs": [],
      "stateMutability": "payable",
      "type": "function",
      "payable": true
    }
  ],
  "bytecode": "0x608060405234801561001057600080fd5b50336000806101000a81548173ffffffffffffffffffffffffffffffffffffffff021916908373ffffffffffffffffffffffffffffffffffffffff160217905550610d4b806100606000396000f3fe60806040526004361061004a5760003560e01c806315cad61a1461004f57806325fcba48146100785780634b5e4108146100a15780636aadc54f146100bd5780638da5cb5b146100e6575b600080fd5b34801561005b57600080fd5b50610076600480360381019061007191906108a7565b610111565b005b34801561008457600080fd5b5061009f600480360381019061009a9190610a1a565b610209565b005b6100bb60048036038101906100b691906108a7565b6103e2565b005b3480156100c957600080fd5b506100e460048036038101906100df9190610ac1565b610608565b005b3480156100f257600080fd5b506100fb610796565b6040516101089190610b23565b60405180910390f35b60008054906101000a900473ffffffffffffffffffffffffffffffffffffffff1673ffffffffffffffffffffffffffffffffffffffff163373ffffffffffffffffffffffffffffffffffffffff161461016957600080fd5b600180600083815260200190815260200160002060060160006101000a81548160ff0219169083151502179055507f594c9c778747ba792378bdf72964686019ed144b5299de901648736fbc4801076001600083815260200190815260200160002060000160009054906101000a900473ffffffffffffffffffffffffffffffffffffffff16826040516101fe929190610b4d565b60405180910390a150565b6040518060c001604052803373ffffffffffffffffffffffffffffffffffffffff1681526020016002548152602001828152602001600081526020016040518060400160405280600073ffffffffffffffffffffffffffffffffffffffff168152602001600081525081526020016000151581525060016000600254815260200190815260200160002060008201518160000160006101000a81548173ffffffffffffffffffffffffffffffffffffffff021916908373ffffffffffffffffffffffffffffffffffffffff1602179055506020820151816001015560408201518160020190805190602001906103009291906107ba565b506060820151816003015560808201518160040160008201518160000160006101000a81548173ffffffffffffffffffffffffffffffffffffffff021916908373ffffffffffffffffffffffffffffffffffffffff16021790555060208201518160010155505060a08201518160060160006101000a81548160ff0219169083151502179055509050507feebae0b48a7f2591bfa19fa37c14ee17b83847235faeb783cbce623849cbd8bb33600254836040516103bf93929190610bfe565b60405180910390a1600260008154809291906103da90610c6b565b919050555050565b6001600082815260200190815260200160002060040160000160009054906101000a900473ffffffffffffffffffffffffffffffffffffffff1673ffffffffffffffffffffffffffffffffffffffff163373ffffffffffffffffffffffffffffffffffffffff161461045357600080fd5b6001600082815260200190815260200160002060060160009054906101000a900460ff1661048057600080fd5b7f01d7b3eff45d42858d22ded7901d1fbcfb82acb487ec59de32dd55d3de7177fa6001600083815260200190815260200160002060000160009054906101000a900473ffffffffffffffffffffffffffffffffffffffff16826040516104e7929190610b4d565b60405180910390a160008054906101000a900473ffffffffffffffffffffffffffffffffffffffff1673ffffffffffffffffffffffffffffffffffffffff166108fc60016000848152602001908152602001600020600301549081150290604051600060405180830381858888f1935050505015801561056b573d6000803e3d6000fd5b506001600082815260200190815260200160002060040160000160009054906101000a900473ffffffffffffffffffffffffffffffffffffffff1673ffffffffffffffffffffffffffffffffffffffff166108fc60016000848152602001908152602001600020600401600101549081150290604051600060405180830381858888f19350505050158015610604573d6000803e3d6000fd5b5050565b60008054906101000a900473ffffffffffffffffffffffffffffffffffffffff1673ffffffffffffffffffffffffffffffffffffffff163373ffffffffffffffffffffffffffffffffffffffff161461066057600080fd5b6001600084815260200190815260200160002060060160009054906101000a900460ff1661068d57600080fd5b60405180604001604052808373ffffffffffffffffffffffffffffffffffffffff168152602001828152506001600085815260200190815260200160002060040160008201518160000160006101000a81548173ffffffffffffffffffffffffffffffffffffffff021916908373ffffffffffffffffffffffffffffffffffffffff160217905550602082015181600101559050507f48e62890e134c30da1cc8978ac086b57b2b2de30ebe7366dc867e9cbc6311df36001600085815260200190815260200160002060000160009054906101000a900473ffffffffffffffffffffffffffffffffffffffff1684604051610789929190610b4d565b60405180910390a1505050565b60008054906101000a900473ffffffffffffffffffffffffffffffffffffffff1681565b8280546107c690610ce3565b90600052602060002090601f0160209004810192826107e8576000855561082f565b82601f1061080157805160ff191683800117855561082f565b8280016001018555821561082f579182015b8281111561082e578251825591602001919060010190610813565b5b50905061083c9190610840565b5090565b5b80821115610859576000816000905550600101610841565b5090565b6000604051905090565b600080fd5b600080fd5b6000819050919050565b61088481610871565b811461088f57600080fd5b50565b6000813590506108a18161087b565b92915050565b6000602082840312156108bd576108bc610867565b5b60006108cb84828501610892565b91505092915050565b600080fd5b600080fd5b6000601f19601f8301169050919050565b7f4e487b7100000000000000000000000000000000000000000000000000000000600052604160045260246000fd5b610927826108de565b810181811067ffffffffffffffff82111715610946576109456108ef565b5b80604052505050565b600061095961085d565b9050610965828261091e565b919050565b600067ffffffffffffffff821115610985576109846108ef565b5b61098e826108de565b9050602081019050919050565b82818337600083830152505050565b60006109bd6109b88461096a565b61094f565b9050828152602081018484840111156109d9576109d86108d9565b5b6109e484828561099b565b509392505050565b600082601f830112610a0157610a006108d4565b5b8135610a118482602086016109aa565b91505092915050565b600060208284031215610a3057610a2f610867565b5b600082013567ffffffffffffffff811115610a4e57610a4d61086c565b5b610a5a848285016109ec565b91505092915050565b600073ffffffffffffffffffffffffffffffffffffffff82169050919050565b6000610a8e82610a63565b9050919050565b610a9e81610a83565b8114610aa957600080fd5b50565b600081359050610abb81610a95565b92915050565b600080600060608486031215610ada57610ad9610867565b5b6000610ae886828701610892565b9350506020610af986828701610aac565b9250506040610b0a86828701610892565b9150509250925092565b610b1d81610a83565b82525050565b6000602082019050610b386000830184610b14565b92915050565b610b4781610871565b82525050565b6000604082019050610b626000830185610b14565b610b6f6020830184610b3e565b9392505050565b600081519050919050565b600082825260208201905092915050565b60005b83811015610bb0578082015181840152602081019050610b95565b83811115610bbf576000848401525b50505050565b6000610bd082610b76565b610bda8185610b81565b9350610bea818560208601610b92565b610bf3816108de565b840191505092915050565b6000606082019050610c136000830186610b14565b610c206020830185610b3e565b8181036040830152610c328184610bc5565b9050949350505050565b7f4e487b7100000000000000000000000000000000000000000000000000000000600052601160045260246000fd5b6000610c7682610871565b91507fffffffffffffffffffffffffffffffffffffffffffffffffffffffffffffffff821415610ca957610ca8610c3c565b5b600182019050919050565b7f4e487b7100000000000000000000000000000000000000000000000000000000600052602260045260246000fd5b60006002820490506001821680610cfb57607f821691505b60208210811415610d0f57610d0e610cb4565b5b5091905056fea26469706673582212206c673888b2c0e70bbfc8b2c49b5e007e54c3acc4f819274631c363ea6f120fb964736f6c634300080a0033",
  "immutableReferences": {},
  "source": "// SPDX-License-Identifier: MIT\npragma solidity >=0.8.9;\n\ncontract Deal {\n  address public owner;\n\n  struct Shipment {\n    address courier;\n    uint price;\n  }\n\n  struct Order {\n    address buyer;\n    uint orderid;\n    string product;\n    uint price;\n    Shipment shipment;\n\n    bool init;\n  }\n\n  constructor() {\n    owner = msg.sender;\n  }\n\n  mapping (uint => Order) orders;\n\n  uint orders_size;\n\n  event orderSent(address buyer, uint orderid, string product);\n  event orderApproved(address buyer, uint orderid);\n  event shipmentAdded(address buyer, uint orderid);\n  event orderDelivered(address buyer, uint orderid);\n\n  function sendOrder(string memory product) external  {\n\n    orders[orders_size] = Order(msg.sender, orders_size, product, 0, Shipment(address(0), 0), false);\n\n    emit orderSent(msg.sender, orders_size, product);\n    orders_size++;\n  }\n\n  function initOrder(uint orderid) external {\n    require(msg.sender == owner);\n\n    orders[orderid].init = true;\n\n    emit orderApproved(orders[orderid].buyer, orderid);\n  }\n\n  function addShipment(uint orderid, address _courier, uint price) external {\n    require(msg.sender == owner);\n    require(orders[orderid].init);\n\n    orders[orderid].shipment = Shipment(_courier, price);\n\n    emit shipmentAdded(orders[orderid].buyer, orderid);\n  }\n\n  function delivered(uint orderid) external payable {\n    require(msg.sender == orders[orderid].shipment.courier);\n    require(orders[orderid].init);\n\n    emit orderDelivered(orders[orderid].buyer, orderid);\n\n    payable(owner).transfer(orders[orderid].price);\n\n    payable(orders[orderid].shipment.courier).transfer(orders[orderid].shipment.price);\n  }\n\n  // function queryOrder() external pure returns (uint, string memory, uint){\n\n  // }\n\n}\n",
  "sourcePath": "C:\\Users\\stolo\\Desktop\\uni\\blockchain\\Dapp\\contracts\\Deal.sol",
  "compiler": {
    "name": "solc",
    "version": "0.8.10+commit.fc410830.Emscripten.clang"
  },
  "schemaVersion": "3.4.3",
  "updatedAt": "2021-12-14T19:54:31.491Z",
  "networkType": "ethereum",
  "devdoc": {
    "kind": "dev",
    "methods": {},
    "version": 1
  },
  "userdoc": {
    "kind": "user",
    "methods": {},
    "version": 1
  }
}