{
  "contractName": "Deal",
  "abi": [
    {
      "inputs": [],
      "stateMutability": "nonpayable",
      "type": "constructor"
    },
    {
      "anonymous": false,
      "inputs": [
        {
          "indexed": false,
          "internalType": "address",
          "name": "buyer",
          "type": "address"
        },
        {
          "indexed": false,
          "internalType": "uint256",
          "name": "product",
          "type": "uint256"
        },
        {
          "indexed": false,
          "internalType": "uint256",
          "name": "amount",
          "type": "uint256"
        },
        {
          "indexed": false,
          "internalType": "uint256",
          "name": "orderid",
          "type": "uint256"
        }
      ],
      "name": "OrderSent",
      "type": "event"
    },
    {
      "inputs": [],
      "name": "owner",
      "outputs": [
        {
          "internalType": "address",
          "name": "",
          "type": "address"
        }
      ],
      "stateMutability": "view",
      "type": "function",
      "constant": true
    },
    {
      "inputs": [
        {
          "internalType": "uint256",
          "name": "product",
          "type": "uint256"
        },
        {
          "internalType": "uint256",
          "name": "amount",
          "type": "uint256"
        }
      ],
      "name": "sendOrder",
      "outputs": [],
      "stateMutability": "nonpayable",
      "type": "function"
    }
  ],
  "bytecode": "0x608060405234801561001057600080fd5b50336000806101000a81548173ffffffffffffffffffffffffffffffffffffffff021916908373ffffffffffffffffffffffffffffffffffffffff16021790555061037f806100606000396000f3fe608060405234801561001057600080fd5b50600436106100365760003560e01c806359cf1f361461003b5780638da5cb5b14610057575b600080fd5b610055600480360381019061005091906101e1565b610075565b005b61005f610182565b60405161006c9190610262565b60405180910390f35b60405180608001604052803373ffffffffffffffffffffffffffffffffffffffff168152602001838152602001828152602001600260008154809291906100bb906102ac565b9190505581525060016000600254815260200190815260200160002060008201518160000160006101000a81548173ffffffffffffffffffffffffffffffffffffffff021916908373ffffffffffffffffffffffffffffffffffffffff1602179055506020820151816001015560408201518160020155606082015181600301559050507f7ef894f50dcc7be631de13cedba709b7b7572a6131a6fd4ad6cf78bfaedb29423383836002546040516101769493929190610304565b60405180910390a15050565b60008054906101000a900473ffffffffffffffffffffffffffffffffffffffff1681565b600080fd5b6000819050919050565b6101be816101ab565b81146101c957600080fd5b50565b6000813590506101db816101b5565b92915050565b600080604083850312156101f8576101f76101a6565b5b6000610206858286016101cc565b9250506020610217858286016101cc565b9150509250929050565b600073ffffffffffffffffffffffffffffffffffffffff82169050919050565b600061024c82610221565b9050919050565b61025c81610241565b82525050565b60006020820190506102776000830184610253565b92915050565b7f4e487b7100000000000000000000000000000000000000000000000000000000600052601160045260246000fd5b60006102b7826101ab565b91507fffffffffffffffffffffffffffffffffffffffffffffffffffffffffffffffff8214156102ea576102e961027d565b5b600182019050919050565b6102fe816101ab565b82525050565b60006080820190506103196000830187610253565b61032660208301866102f5565b61033360408301856102f5565b61034060608301846102f5565b9594505050505056fea2646970667358221220ad91533b2d09fcc8148fe90b2f74e37450e3fb60663735173b5a34ae1789891664736f6c634300080a0033",
  "immutableReferences": {},
  "source": "pragma solidity >=0.8.9;\n\ncontract Deal {\n  address public owner;\n\n  struct Order {\n    address buyer;\n    uint product;\n    uint amount;\n    uint ordersid;\n  }\n\n  constructor() public {\n    owner = msg.sender;\n  }\n\n  mapping (uint => Order) orders;\n\n  uint orders_size;\n\n  event OrderSent(address buyer, uint product, uint amount, uint orderid);\n\n  function sendOrder(uint product, uint amount) public {\n\n    orders[orders_size] = Order(msg.sender, product, amount, orders_size++);\n\n    emit OrderSent(msg.sender, product, amount, orders_size);\n  }\n\n}\n",
  "sourcePath": "C:\\Users\\stolo\\Desktop\\uni\\blockchain\\dapptest\\contracts\\Deal.sol",
  "compiler": {
    "name": "solc",
    "version": "0.8.10+commit.fc410830.Emscripten.clang"
  },
  "schemaVersion": "3.4.3",
  "updatedAt": "2021-12-08T14:23:06.737Z",
  "networkType": "ethereum",
  "devdoc": {
    "kind": "dev",
    "methods": {},
    "version": 1
  },
  "userdoc": {
    "kind": "user",
    "methods": {},
    "version": 1
  }
}