{
  "contractName": "Deal",
  "abi": [
    {
      "inputs": [],
      "stateMutability": "nonpayable",
      "type": "constructor"
    },
    {
      "anonymous": false,
      "inputs": [
        {
          "indexed": false,
          "internalType": "address",
          "name": "buyer",
          "type": "address"
        },
        {
          "indexed": false,
          "internalType": "uint256",
          "name": "orderid",
          "type": "uint256"
        }
      ],
      "name": "orderApproved",
      "type": "event"
    },
    {
      "anonymous": false,
      "inputs": [
        {
          "indexed": false,
          "internalType": "address",
          "name": "buyer",
          "type": "address"
        },
        {
          "indexed": false,
          "internalType": "uint256",
          "name": "orderid",
          "type": "uint256"
        }
      ],
      "name": "orderDelivered",
      "type": "event"
    },
    {
      "anonymous": false,
      "inputs": [
        {
          "indexed": false,
          "internalType": "address",
          "name": "buyer",
          "type": "address"
        },
        {
          "indexed": false,
          "internalType": "uint256",
          "name": "orderid",
          "type": "uint256"
        },
        {
          "indexed": false,
          "internalType": "string",
          "name": "product",
          "type": "string"
        },
        {
          "indexed": false,
          "internalType": "uint256",
          "name": "price",
          "type": "uint256"
        },
        {
          "indexed": false,
          "internalType": "uint256",
          "name": "pay",
          "type": "uint256"
        },
        {
          "indexed": false,
          "internalType": "bool",
          "name": "init",
          "type": "bool"
        },
        {
          "indexed": false,
          "internalType": "bool",
          "name": "payed",
          "type": "bool"
        }
      ],
      "name": "orderPayed",
      "type": "event"
    },
    {
      "anonymous": false,
      "inputs": [
        {
          "indexed": false,
          "internalType": "address",
          "name": "buyer",
          "type": "address"
        },
        {
          "indexed": false,
          "internalType": "uint256",
          "name": "orderid",
          "type": "uint256"
        },
        {
          "indexed": false,
          "internalType": "string",
          "name": "product",
          "type": "string"
        },
        {
          "indexed": false,
          "internalType": "uint256",
          "name": "price",
          "type": "uint256"
        },
        {
          "indexed": false,
          "internalType": "uint256",
          "name": "pay",
          "type": "uint256"
        },
        {
          "indexed": false,
          "internalType": "bool",
          "name": "init",
          "type": "bool"
        },
        {
          "indexed": false,
          "internalType": "bool",
          "name": "payed",
          "type": "bool"
        }
      ],
      "name": "orderSent",
      "type": "event"
    },
    {
      "anonymous": false,
      "inputs": [
        {
          "indexed": false,
          "internalType": "address",
          "name": "buyer",
          "type": "address"
        },
        {
          "indexed": false,
          "internalType": "uint256",
          "name": "orderid",
          "type": "uint256"
        }
      ],
      "name": "shipmentAdded",
      "type": "event"
    },
    {
      "inputs": [],
      "name": "owner",
      "outputs": [
        {
          "internalType": "address",
          "name": "",
          "type": "address"
        }
      ],
      "stateMutability": "view",
      "type": "function",
      "constant": true
    },
    {
      "inputs": [
        {
          "internalType": "string",
          "name": "product",
          "type": "string"
        }
      ],
      "name": "sendOrder",
      "outputs": [],
      "stateMutability": "nonpayable",
      "type": "function"
    },
    {
      "inputs": [
        {
          "internalType": "uint256",
          "name": "orderid",
          "type": "uint256"
        }
      ],
      "name": "initOrder",
      "outputs": [],
      "stateMutability": "nonpayable",
      "type": "function"
    },
    {
      "inputs": [
        {
          "internalType": "uint256",
          "name": "orderid",
          "type": "uint256"
        }
      ],
      "name": "sendPay",
      "outputs": [],
      "stateMutability": "payable",
      "type": "function",
      "payable": true
    },
    {
      "inputs": [
        {
          "internalType": "uint256",
          "name": "orderid",
          "type": "uint256"
        },
        {
          "internalType": "address",
          "name": "courier",
          "type": "address"
        },
        {
          "internalType": "uint256",
          "name": "price",
          "type": "uint256"
        },
        {
          "internalType": "uint256",
          "name": "shipment_price",
          "type": "uint256"
        }
      ],
      "name": "addShipment",
      "outputs": [],
      "stateMutability": "nonpayable",
      "type": "function"
    },
    {
      "inputs": [
        {
          "internalType": "uint256",
          "name": "orderid",
          "type": "uint256"
        }
      ],
      "name": "delivered",
      "outputs": [],
      "stateMutability": "payable",
      "type": "function",
      "payable": true
    },
    {
      "inputs": [
        {
          "internalType": "uint256",
          "name": "_orderid",
          "type": "uint256"
        }
      ],
      "name": "queryOrder",
      "outputs": [
        {
          "internalType": "address",
          "name": "buyer",
          "type": "address"
        },
        {
          "internalType": "uint256",
          "name": "orderid",
          "type": "uint256"
        },
        {
          "internalType": "string",
          "name": "product",
          "type": "string"
        },
        {
          "internalType": "uint256",
          "name": "price",
          "type": "uint256"
        },
        {
          "internalType": "uint256",
          "name": "pay",
          "type": "uint256"
        },
        {
          "internalType": "bool",
          "name": "init",
          "type": "bool"
        },
        {
          "internalType": "bool",
          "name": "payed",
          "type": "bool"
        }
      ],
      "stateMutability": "view",
      "type": "function",
      "constant": true
    }
  ],
  "bytecode": "0x6080604052600160025534801561001557600080fd5b50336000806101000a81548173ffffffffffffffffffffffffffffffffffffffff021916908373ffffffffffffffffffffffffffffffffffffffff1602179055506114cf806100656000396000f3fe6080604052600436106100705760003560e01c80634b5e41081161004e5780634b5e4108146100e35780638da5cb5b146100ff57806390259dd51461012a578063c5cc426a1461015357610070565b806315cad61a1461007557806325fcba481461009e5780633a7f0fcf146100c7575b600080fd5b34801561008157600080fd5b5061009c60048036038101906100979190610da8565b610196565b005b3480156100aa57600080fd5b506100c560048036038101906100c09190610f1b565b61028e565b005b6100e160048036038101906100dc9190610da8565b6104ac565b005b6100fd60048036038101906100f89190610da8565b6106ec565b005b34801561010b57600080fd5b5061011461093f565b6040516101219190610fa5565b60405180910390f35b34801561013657600080fd5b50610151600480360381019061014c9190610fec565b610963565b005b34801561015f57600080fd5b5061017a60048036038101906101759190610da8565b610b0d565b60405161018d9796959493929190611105565b60405180910390f35b60008054906101000a900473ffffffffffffffffffffffffffffffffffffffff1673ffffffffffffffffffffffffffffffffffffffff163373ffffffffffffffffffffffffffffffffffffffff16146101ee57600080fd5b600180600083815260200190815260200160002060070160006101000a81548160ff0219169083151502179055507f594c9c778747ba792378bdf72964686019ed144b5299de901648736fbc4801076001600083815260200190815260200160002060000160009054906101000a900473ffffffffffffffffffffffffffffffffffffffff168260405161028392919061117b565b60405180910390a150565b6040518061010001604052803373ffffffffffffffffffffffffffffffffffffffff168152602001600254815260200182815260200160008152602001600081526020016040518060400160405280600073ffffffffffffffffffffffffffffffffffffffff168152602001600081525081526020016000151581526020016000151581525060016000600254815260200190815260200160002060008201518160000160006101000a81548173ffffffffffffffffffffffffffffffffffffffff021916908373ffffffffffffffffffffffffffffffffffffffff160217905550602082015181600101556040820151816002019080519060200190610396929190610cbb565b50606082015181600301556080820151816004015560a08201518160050160008201518160000160006101000a81548173ffffffffffffffffffffffffffffffffffffffff021916908373ffffffffffffffffffffffffffffffffffffffff16021790555060208201518160010155505060c08201518160070160006101000a81548160ff02191690831515021790555060e08201518160070160016101000a81548160ff0219169083151502179055509050507fd2aa77ee2e52236f18b01757d135fe10821fa99a72f7144b58321fe18e3b5237336002548360008060008060405161048997969594939291906111e9565b60405180910390a1600260008154809291906104a49061128e565b919050555050565b3373ffffffffffffffffffffffffffffffffffffffff166001600083815260200190815260200160002060000160009054906101000a900473ffffffffffffffffffffffffffffffffffffffff1673ffffffffffffffffffffffffffffffffffffffff161461051a57600080fd5b6001600082815260200190815260200160002060070160009054906101000a900460ff1661054757600080fd5b3460016000838152602001908152602001600020600401600082825461056d91906112d7565b92505081905550600160008281526020019081526020016000206005016001015460016000838152602001908152602001600020600301546105af91906112d7565b600160008381526020019081526020016000206004015414156105fb57600180600083815260200190815260200160002060070160016101000a81548160ff0219169083151502179055505b7f57a90f5800884cd9866814c681d40240e37a9abdc5a8de6278249f0889c27c323382600160008581526020019081526020016000206002016001600086815260200190815260200160002060050160010154600160008781526020019081526020016000206003015461066f91906112d7565b60016000878152602001908152602001600020600401546001600088815260200190815260200160002060070160009054906101000a900460ff166001600089815260200190815260200160002060070160019054906101000a900460ff166040516106e19796959493929190611423565b60405180910390a150565b6001600082815260200190815260200160002060050160000160009054906101000a900473ffffffffffffffffffffffffffffffffffffffff1673ffffffffffffffffffffffffffffffffffffffff163373ffffffffffffffffffffffffffffffffffffffff161461075d57600080fd5b6001600082815260200190815260200160002060070160009054906101000a900460ff1661078a57600080fd5b6001600082815260200190815260200160002060070160019054906101000a900460ff166107b757600080fd5b7f01d7b3eff45d42858d22ded7901d1fbcfb82acb487ec59de32dd55d3de7177fa6001600083815260200190815260200160002060000160009054906101000a900473ffffffffffffffffffffffffffffffffffffffff168260405161081e92919061117b565b60405180910390a160008054906101000a900473ffffffffffffffffffffffffffffffffffffffff1673ffffffffffffffffffffffffffffffffffffffff166108fc60016000848152602001908152602001600020600301549081150290604051600060405180830381858888f193505050501580156108a2573d6000803e3d6000fd5b506001600082815260200190815260200160002060050160000160009054906101000a900473ffffffffffffffffffffffffffffffffffffffff1673ffffffffffffffffffffffffffffffffffffffff166108fc60016000848152602001908152602001600020600501600101549081150290604051600060405180830381858888f1935050505015801561093b573d6000803e3d6000fd5b5050565b60008054906101000a900473ffffffffffffffffffffffffffffffffffffffff1681565b60008054906101000a900473ffffffffffffffffffffffffffffffffffffffff1673ffffffffffffffffffffffffffffffffffffffff163373ffffffffffffffffffffffffffffffffffffffff16146109bb57600080fd5b6001600085815260200190815260200160002060070160009054906101000a900460ff166109e857600080fd5b81600160008681526020019081526020016000206003018190555060405180604001604052808473ffffffffffffffffffffffffffffffffffffffff168152602001828152506001600086815260200190815260200160002060050160008201518160000160006101000a81548173ffffffffffffffffffffffffffffffffffffffff021916908373ffffffffffffffffffffffffffffffffffffffff160217905550602082015181600101559050507f48e62890e134c30da1cc8978ac086b57b2b2de30ebe7366dc867e9cbc6311df36001600086815260200190815260200160002060000160009054906101000a900473ffffffffffffffffffffffffffffffffffffffff1685604051610aff92919061117b565b60405180910390a150505050565b60008060606000806000806001600089815260200190815260200160002060000160009054906101000a900473ffffffffffffffffffffffffffffffffffffffff16600160008a815260200190815260200160002060010154600160008b8152602001908152602001600020600201600160008c815260200190815260200160002060050160010154600160008d815260200190815260200160002060030154610bb791906112d7565b600160008d815260200190815260200160002060040154600160008e815260200190815260200160002060070160009054906101000a900460ff16600160008f815260200190815260200160002060070160019054906101000a900460ff16848054610c229061135c565b80601f0160208091040260200160405190810160405280929190818152602001828054610c4e9061135c565b8015610c9b5780601f10610c7057610100808354040283529160200191610c9b565b820191906000526020600020905b815481529060010190602001808311610c7e57829003601f168201915b505050505094509650965096509650965096509650919395979092949650565b828054610cc79061135c565b90600052602060002090601f016020900481019282610ce95760008555610d30565b82601f10610d0257805160ff1916838001178555610d30565b82800160010185558215610d30579182015b82811115610d2f578251825591602001919060010190610d14565b5b509050610d3d9190610d41565b5090565b5b80821115610d5a576000816000905550600101610d42565b5090565b6000604051905090565b600080fd5b600080fd5b6000819050919050565b610d8581610d72565b8114610d9057600080fd5b50565b600081359050610da281610d7c565b92915050565b600060208284031215610dbe57610dbd610d68565b5b6000610dcc84828501610d93565b91505092915050565b600080fd5b600080fd5b6000601f19601f8301169050919050565b7f4e487b7100000000000000000000000000000000000000000000000000000000600052604160045260246000fd5b610e2882610ddf565b810181811067ffffffffffffffff82111715610e4757610e46610df0565b5b80604052505050565b6000610e5a610d5e565b9050610e668282610e1f565b919050565b600067ffffffffffffffff821115610e8657610e85610df0565b5b610e8f82610ddf565b9050602081019050919050565b82818337600083830152505050565b6000610ebe610eb984610e6b565b610e50565b905082815260208101848484011115610eda57610ed9610dda565b5b610ee5848285610e9c565b509392505050565b600082601f830112610f0257610f01610dd5565b5b8135610f12848260208601610eab565b91505092915050565b600060208284031215610f3157610f30610d68565b5b600082013567ffffffffffffffff811115610f4f57610f4e610d6d565b5b610f5b84828501610eed565b91505092915050565b600073ffffffffffffffffffffffffffffffffffffffff82169050919050565b6000610f8f82610f64565b9050919050565b610f9f81610f84565b82525050565b6000602082019050610fba6000830184610f96565b92915050565b610fc981610f84565b8114610fd457600080fd5b50565b600081359050610fe681610fc0565b92915050565b6000806000806080858703121561100657611005610d68565b5b600061101487828801610d93565b945050602061102587828801610fd7565b935050604061103687828801610d93565b925050606061104787828801610d93565b91505092959194509250565b61105c81610d72565b82525050565b600081519050919050565b600082825260208201905092915050565b60005b8381101561109c578082015181840152602081019050611081565b838111156110ab576000848401525b50505050565b60006110bc82611062565b6110c6818561106d565b93506110d681856020860161107e565b6110df81610ddf565b840191505092915050565b60008115159050919050565b6110ff816110ea565b82525050565b600060e08201905061111a600083018a610f96565b6111276020830189611053565b818103604083015261113981886110b1565b90506111486060830187611053565b6111556080830186611053565b61116260a08301856110f6565b61116f60c08301846110f6565b98975050505050505050565b60006040820190506111906000830185610f96565b61119d6020830184611053565b9392505050565b6000819050919050565b6000819050919050565b60006111d36111ce6111c9846111a4565b6111ae565b610d72565b9050919050565b6111e3816111b8565b82525050565b600060e0820190506111fe600083018a610f96565b61120b6020830189611053565b818103604083015261121d81886110b1565b905061122c60608301876111da565b61123960808301866111da565b61124660a08301856110f6565b61125360c08301846110f6565b98975050505050505050565b7f4e487b7100000000000000000000000000000000000000000000000000000000600052601160045260246000fd5b600061129982610d72565b91507fffffffffffffffffffffffffffffffffffffffffffffffffffffffffffffffff8214156112cc576112cb61125f565b5b600182019050919050565b60006112e282610d72565b91506112ed83610d72565b9250827fffffffffffffffffffffffffffffffffffffffffffffffffffffffffffffffff038211156113225761132161125f565b5b828201905092915050565b7f4e487b7100000000000000000000000000000000000000000000000000000000600052602260045260246000fd5b6000600282049050600182168061137457607f821691505b602082108114156113885761138761132d565b5b50919050565b60008190508160005260206000209050919050565b600081546113b08161135c565b6113ba818661106d565b945060018216600081146113d557600181146113e75761141a565b60ff198316865260208601935061141a565b6113f08561138e565b60005b83811015611412578154818901526001820191506020810190506113f3565b808801955050505b50505092915050565b600060e082019050611438600083018a610f96565b6114456020830189611053565b818103604083015261145781886113a3565b90506114666060830187611053565b6114736080830186611053565b61148060a08301856110f6565b61148d60c08301846110f6565b9897505050505050505056fea26469706673582212206cd8d6102d805176729f47454486ffeeb8e00a0f9b35a69a33a5ae98dac3357064736f6c634300080a0033",
  "immutableReferences": {},
  "source": "// SPDX-License-Identifier: MIT\npragma solidity >=0.8.9;\n\ncontract Deal {\n  address public owner;\n\n  struct Shipment {\n    address courier;\n    uint price;\n  }\n\n  struct Order {\n    address buyer;\n    uint orderid;\n    string product;\n    uint price;\n    uint pay;\n    Shipment shipment;\n\n    bool init;\n    bool payed;\n  }\n\n  constructor() {\n    owner = msg.sender;\n  }\n\n  mapping (uint => Order) orders;\n\n  uint orders_size = 1;\n\n  event orderSent(address buyer, uint orderid, string product, uint price, uint pay, bool init, bool payed);\n  event orderApproved(address buyer, uint orderid);\n  event shipmentAdded(address buyer, uint orderid);\n  event orderDelivered(address buyer, uint orderid);\n  event orderPayed(address buyer, uint orderid, string product, uint price, uint pay, bool init, bool payed);\n\n  function sendOrder(string memory product) external  {\n\n    orders[orders_size] = Order(msg.sender, orders_size, product, 0, 0, Shipment(address(0), 0), false, false);\n\n    emit orderSent(msg.sender, orders_size, product, 0, 0, false, false);\n    orders_size++;\n  }\n\n  function initOrder(uint orderid) external {\n    require(msg.sender == owner);\n\n    orders[orderid].init = true;\n\n    emit orderApproved(orders[orderid].buyer, orderid);\n  }\n\n  function sendPay(uint orderid) payable public {\n    require(orders[orderid].buyer == msg.sender);\n\n    require(orders[orderid].init);\n\n    orders[orderid].pay += msg.value;\n\n    if(orders[orderid].pay == orders[orderid].price + orders[orderid].shipment.price){\n      orders[orderid].payed = true;\n    }\n\n    emit orderPayed(msg.sender, orderid, orders[orderid].product, orders[orderid].price + orders[orderid].shipment.price, orders[orderid].pay, orders[orderid].init, orders[orderid].payed);\n  }\n\n  function addShipment(uint orderid, address courier, uint price, uint shipment_price) external {\n    require(msg.sender == owner);\n    require(orders[orderid].init);\n\n    orders[orderid].price = price;\n    orders[orderid].shipment = Shipment(courier, shipment_price);\n\n    emit shipmentAdded(orders[orderid].buyer, orderid);\n  }\n\n  function delivered(uint orderid) external payable {\n    require(msg.sender == orders[orderid].shipment.courier);\n    require(orders[orderid].init);\n    require(orders[orderid].payed);\n\n    emit orderDelivered(orders[orderid].buyer, orderid);\n\n    payable(owner).transfer(orders[orderid].price);\n\n    payable(orders[orderid].shipment.courier).transfer(orders[orderid].shipment.price);\n  }\n\n  function queryOrder(uint _orderid) external view returns (address buyer, uint orderid, string memory product, uint price, uint pay, bool init, bool payed){\n    return (orders[_orderid].buyer, orders[_orderid].orderid, orders[_orderid].product, (orders[_orderid].price + orders[_orderid].shipment.price), orders[_orderid].pay, orders[_orderid].init, orders[_orderid].payed);  \n  }\n}\n",
  "sourcePath": "C:\\Users\\stolo\\Desktop\\uni\\blockchain\\Dapp\\contracts\\Deal.sol",
  "compiler": {
    "name": "solc",
    "version": "0.8.10+commit.fc410830.Emscripten.clang"
  },
  "schemaVersion": "3.4.3",
  "updatedAt": "2021-12-16T14:58:49.418Z",
  "networkType": "ethereum",
  "devdoc": {
    "kind": "dev",
    "methods": {},
    "version": 1
  },
  "userdoc": {
    "kind": "user",
    "methods": {},
    "version": 1
  }
}