{
  "contractName": "Deal",
  "abi": [
    {
      "inputs": [],
      "stateMutability": "nonpayable",
      "type": "constructor"
    },
    {
      "anonymous": false,
      "inputs": [
        {
          "indexed": false,
          "internalType": "address",
          "name": "buyer",
          "type": "address"
        },
        {
          "indexed": false,
          "internalType": "uint256",
          "name": "orderid",
          "type": "uint256"
        }
      ],
      "name": "orderApproved",
      "type": "event"
    },
    {
      "anonymous": false,
      "inputs": [
        {
          "indexed": false,
          "internalType": "address",
          "name": "buyer",
          "type": "address"
        },
        {
          "indexed": false,
          "internalType": "uint256",
          "name": "orderid",
          "type": "uint256"
        }
      ],
      "name": "orderDelivered",
      "type": "event"
    },
    {
      "anonymous": false,
      "inputs": [
        {
          "indexed": false,
          "internalType": "address",
          "name": "buyer",
          "type": "address"
        },
        {
          "indexed": false,
          "internalType": "uint256",
          "name": "orderid",
          "type": "uint256"
        },
        {
          "indexed": false,
          "internalType": "string",
          "name": "product",
          "type": "string"
        },
        {
          "indexed": false,
          "internalType": "uint256",
          "name": "price",
          "type": "uint256"
        },
        {
          "indexed": false,
          "internalType": "uint256",
          "name": "pay",
          "type": "uint256"
        },
        {
          "indexed": false,
          "internalType": "bool",
          "name": "init",
          "type": "bool"
        },
        {
          "indexed": false,
          "internalType": "bool",
          "name": "payed",
          "type": "bool"
        }
      ],
      "name": "orderSent",
      "type": "event"
    },
    {
      "anonymous": false,
      "inputs": [
        {
          "indexed": false,
          "internalType": "address",
          "name": "buyer",
          "type": "address"
        },
        {
          "indexed": false,
          "internalType": "uint256",
          "name": "orderid",
          "type": "uint256"
        }
      ],
      "name": "shipmentAdded",
      "type": "event"
    },
    {
      "inputs": [],
      "name": "owner",
      "outputs": [
        {
          "internalType": "address",
          "name": "",
          "type": "address"
        }
      ],
      "stateMutability": "view",
      "type": "function",
      "constant": true
    },
    {
      "inputs": [
        {
          "internalType": "string",
          "name": "product",
          "type": "string"
        }
      ],
      "name": "sendOrder",
      "outputs": [],
      "stateMutability": "nonpayable",
      "type": "function"
    },
    {
      "inputs": [
        {
          "internalType": "uint256",
          "name": "orderid",
          "type": "uint256"
        }
      ],
      "name": "initOrder",
      "outputs": [],
      "stateMutability": "nonpayable",
      "type": "function"
    },
    {
      "inputs": [
        {
          "internalType": "uint256",
          "name": "orderid",
          "type": "uint256"
        }
      ],
      "name": "sendPay",
      "outputs": [],
      "stateMutability": "payable",
      "type": "function",
      "payable": true
    },
    {
      "inputs": [
        {
          "internalType": "uint256",
          "name": "orderid",
          "type": "uint256"
        },
        {
          "internalType": "address",
          "name": "courier",
          "type": "address"
        },
        {
          "internalType": "uint256",
          "name": "price",
          "type": "uint256"
        },
        {
          "internalType": "uint256",
          "name": "shipment_price",
          "type": "uint256"
        }
      ],
      "name": "addShipment",
      "outputs": [],
      "stateMutability": "nonpayable",
      "type": "function"
    },
    {
      "inputs": [
        {
          "internalType": "uint256",
          "name": "orderid",
          "type": "uint256"
        }
      ],
      "name": "delivered",
      "outputs": [],
      "stateMutability": "payable",
      "type": "function",
      "payable": true
    },
    {
      "inputs": [
        {
          "internalType": "uint256",
          "name": "_orderid",
          "type": "uint256"
        }
      ],
      "name": "queryOrder",
      "outputs": [
        {
          "internalType": "address",
          "name": "buyer",
          "type": "address"
        },
        {
          "internalType": "uint256",
          "name": "orderid",
          "type": "uint256"
        },
        {
          "internalType": "string",
          "name": "product",
          "type": "string"
        },
        {
          "internalType": "uint256",
          "name": "price",
          "type": "uint256"
        },
        {
          "internalType": "uint256",
          "name": "pay",
          "type": "uint256"
        },
        {
          "internalType": "bool",
          "name": "init",
          "type": "bool"
        },
        {
          "internalType": "bool",
          "name": "payed",
          "type": "bool"
        }
      ],
      "stateMutability": "view",
      "type": "function",
      "constant": true
    }
  ],
  "bytecode": "0x608060405234801561001057600080fd5b50336000806101000a81548173ffffffffffffffffffffffffffffffffffffffff021916908373ffffffffffffffffffffffffffffffffffffffff1602179055506112c4806100606000396000f3fe6080604052600436106100705760003560e01c80634b5e41081161004e5780634b5e4108146100e35780638da5cb5b146100ff57806390259dd51461012a578063c5cc426a1461015357610070565b806315cad61a1461007557806325fcba481461009e5780633a7f0fcf146100c7575b600080fd5b34801561008157600080fd5b5061009c60048036038101906100979190610ca8565b610196565b005b3480156100aa57600080fd5b506100c560048036038101906100c09190610e1b565b61028e565b005b6100e160048036038101906100dc9190610ca8565b6104ac565b005b6100fd60048036038101906100f89190610ca8565b6105ec565b005b34801561010b57600080fd5b5061011461083f565b6040516101219190610ea5565b60405180910390f35b34801561013657600080fd5b50610151600480360381019061014c9190610eec565b610863565b005b34801561015f57600080fd5b5061017a60048036038101906101759190610ca8565b610a0d565b60405161018d9796959493929190611005565b60405180910390f35b60008054906101000a900473ffffffffffffffffffffffffffffffffffffffff1673ffffffffffffffffffffffffffffffffffffffff163373ffffffffffffffffffffffffffffffffffffffff16146101ee57600080fd5b600180600083815260200190815260200160002060070160006101000a81548160ff0219169083151502179055507f594c9c778747ba792378bdf72964686019ed144b5299de901648736fbc4801076001600083815260200190815260200160002060000160009054906101000a900473ffffffffffffffffffffffffffffffffffffffff168260405161028392919061107b565b60405180910390a150565b6040518061010001604052803373ffffffffffffffffffffffffffffffffffffffff168152602001600254815260200182815260200160008152602001600081526020016040518060400160405280600073ffffffffffffffffffffffffffffffffffffffff168152602001600081525081526020016000151581526020016000151581525060016000600254815260200190815260200160002060008201518160000160006101000a81548173ffffffffffffffffffffffffffffffffffffffff021916908373ffffffffffffffffffffffffffffffffffffffff160217905550602082015181600101556040820151816002019080519060200190610396929190610bbb565b50606082015181600301556080820151816004015560a08201518160050160008201518160000160006101000a81548173ffffffffffffffffffffffffffffffffffffffff021916908373ffffffffffffffffffffffffffffffffffffffff16021790555060208201518160010155505060c08201518160070160006101000a81548160ff02191690831515021790555060e08201518160070160016101000a81548160ff0219169083151502179055509050507fd2aa77ee2e52236f18b01757d135fe10821fa99a72f7144b58321fe18e3b5237336002548360008060008060405161048997969594939291906110e9565b60405180910390a1600260008154809291906104a49061118e565b919050555050565b3373ffffffffffffffffffffffffffffffffffffffff166001600083815260200190815260200160002060000160009054906101000a900473ffffffffffffffffffffffffffffffffffffffff1673ffffffffffffffffffffffffffffffffffffffff161461051a57600080fd5b6001600082815260200190815260200160002060070160009054906101000a900460ff1661054757600080fd5b3460016000838152602001908152602001600020600401819055506001600082815260200190815260200160002060050160010154600160008381526020019081526020016000206003015461059d91906111d7565b600160008381526020019081526020016000206004015414156105e957600180600083815260200190815260200160002060070160016101000a81548160ff0219169083151502179055505b50565b6001600082815260200190815260200160002060050160000160009054906101000a900473ffffffffffffffffffffffffffffffffffffffff1673ffffffffffffffffffffffffffffffffffffffff163373ffffffffffffffffffffffffffffffffffffffff161461065d57600080fd5b6001600082815260200190815260200160002060070160009054906101000a900460ff1661068a57600080fd5b6001600082815260200190815260200160002060070160019054906101000a900460ff166106b757600080fd5b7f01d7b3eff45d42858d22ded7901d1fbcfb82acb487ec59de32dd55d3de7177fa6001600083815260200190815260200160002060000160009054906101000a900473ffffffffffffffffffffffffffffffffffffffff168260405161071e92919061107b565b60405180910390a160008054906101000a900473ffffffffffffffffffffffffffffffffffffffff1673ffffffffffffffffffffffffffffffffffffffff166108fc60016000848152602001908152602001600020600301549081150290604051600060405180830381858888f193505050501580156107a2573d6000803e3d6000fd5b506001600082815260200190815260200160002060050160000160009054906101000a900473ffffffffffffffffffffffffffffffffffffffff1673ffffffffffffffffffffffffffffffffffffffff166108fc60016000848152602001908152602001600020600501600101549081150290604051600060405180830381858888f1935050505015801561083b573d6000803e3d6000fd5b5050565b60008054906101000a900473ffffffffffffffffffffffffffffffffffffffff1681565b60008054906101000a900473ffffffffffffffffffffffffffffffffffffffff1673ffffffffffffffffffffffffffffffffffffffff163373ffffffffffffffffffffffffffffffffffffffff16146108bb57600080fd5b6001600085815260200190815260200160002060070160009054906101000a900460ff166108e857600080fd5b81600160008681526020019081526020016000206003018190555060405180604001604052808473ffffffffffffffffffffffffffffffffffffffff168152602001828152506001600086815260200190815260200160002060050160008201518160000160006101000a81548173ffffffffffffffffffffffffffffffffffffffff021916908373ffffffffffffffffffffffffffffffffffffffff160217905550602082015181600101559050507f48e62890e134c30da1cc8978ac086b57b2b2de30ebe7366dc867e9cbc6311df36001600086815260200190815260200160002060000160009054906101000a900473ffffffffffffffffffffffffffffffffffffffff16856040516109ff92919061107b565b60405180910390a150505050565b60008060606000806000806001600089815260200190815260200160002060000160009054906101000a900473ffffffffffffffffffffffffffffffffffffffff16600160008a815260200190815260200160002060010154600160008b8152602001908152602001600020600201600160008c815260200190815260200160002060050160010154600160008d815260200190815260200160002060030154610ab791906111d7565b600160008d815260200190815260200160002060040154600160008e815260200190815260200160002060070160009054906101000a900460ff16600160008f815260200190815260200160002060070160019054906101000a900460ff16848054610b229061125c565b80601f0160208091040260200160405190810160405280929190818152602001828054610b4e9061125c565b8015610b9b5780601f10610b7057610100808354040283529160200191610b9b565b820191906000526020600020905b815481529060010190602001808311610b7e57829003601f168201915b505050505094509650965096509650965096509650919395979092949650565b828054610bc79061125c565b90600052602060002090601f016020900481019282610be95760008555610c30565b82601f10610c0257805160ff1916838001178555610c30565b82800160010185558215610c30579182015b82811115610c2f578251825591602001919060010190610c14565b5b509050610c3d9190610c41565b5090565b5b80821115610c5a576000816000905550600101610c42565b5090565b6000604051905090565b600080fd5b600080fd5b6000819050919050565b610c8581610c72565b8114610c9057600080fd5b50565b600081359050610ca281610c7c565b92915050565b600060208284031215610cbe57610cbd610c68565b5b6000610ccc84828501610c93565b91505092915050565b600080fd5b600080fd5b6000601f19601f8301169050919050565b7f4e487b7100000000000000000000000000000000000000000000000000000000600052604160045260246000fd5b610d2882610cdf565b810181811067ffffffffffffffff82111715610d4757610d46610cf0565b5b80604052505050565b6000610d5a610c5e565b9050610d668282610d1f565b919050565b600067ffffffffffffffff821115610d8657610d85610cf0565b5b610d8f82610cdf565b9050602081019050919050565b82818337600083830152505050565b6000610dbe610db984610d6b565b610d50565b905082815260208101848484011115610dda57610dd9610cda565b5b610de5848285610d9c565b509392505050565b600082601f830112610e0257610e01610cd5565b5b8135610e12848260208601610dab565b91505092915050565b600060208284031215610e3157610e30610c68565b5b600082013567ffffffffffffffff811115610e4f57610e4e610c6d565b5b610e5b84828501610ded565b91505092915050565b600073ffffffffffffffffffffffffffffffffffffffff82169050919050565b6000610e8f82610e64565b9050919050565b610e9f81610e84565b82525050565b6000602082019050610eba6000830184610e96565b92915050565b610ec981610e84565b8114610ed457600080fd5b50565b600081359050610ee681610ec0565b92915050565b60008060008060808587031215610f0657610f05610c68565b5b6000610f1487828801610c93565b9450506020610f2587828801610ed7565b9350506040610f3687828801610c93565b9250506060610f4787828801610c93565b91505092959194509250565b610f5c81610c72565b82525050565b600081519050919050565b600082825260208201905092915050565b60005b83811015610f9c578082015181840152602081019050610f81565b83811115610fab576000848401525b50505050565b6000610fbc82610f62565b610fc68185610f6d565b9350610fd6818560208601610f7e565b610fdf81610cdf565b840191505092915050565b60008115159050919050565b610fff81610fea565b82525050565b600060e08201905061101a600083018a610e96565b6110276020830189610f53565b81810360408301526110398188610fb1565b90506110486060830187610f53565b6110556080830186610f53565b61106260a0830185610ff6565b61106f60c0830184610ff6565b98975050505050505050565b60006040820190506110906000830185610e96565b61109d6020830184610f53565b9392505050565b6000819050919050565b6000819050919050565b60006110d36110ce6110c9846110a4565b6110ae565b610c72565b9050919050565b6110e3816110b8565b82525050565b600060e0820190506110fe600083018a610e96565b61110b6020830189610f53565b818103604083015261111d8188610fb1565b905061112c60608301876110da565b61113960808301866110da565b61114660a0830185610ff6565b61115360c0830184610ff6565b98975050505050505050565b7f4e487b7100000000000000000000000000000000000000000000000000000000600052601160045260246000fd5b600061119982610c72565b91507fffffffffffffffffffffffffffffffffffffffffffffffffffffffffffffffff8214156111cc576111cb61115f565b5b600182019050919050565b60006111e282610c72565b91506111ed83610c72565b9250827fffffffffffffffffffffffffffffffffffffffffffffffffffffffffffffffff038211156112225761122161115f565b5b828201905092915050565b7f4e487b7100000000000000000000000000000000000000000000000000000000600052602260045260246000fd5b6000600282049050600182168061127457607f821691505b602082108114156112885761128761122d565b5b5091905056fea26469706673582212207dd2444b8271e90629ce2684be9f14c9f1272c7d51e488e11cf2ab59378f5b1864736f6c634300080a0033",
  "immutableReferences": {},
  "source": "// SPDX-License-Identifier: MIT\npragma solidity >=0.8.9;\n\ncontract Deal {\n  address public owner;\n\n  struct Shipment {\n    address courier;\n    uint price;\n  }\n\n  struct Order {\n    address buyer;\n    uint orderid;\n    string product;\n    uint price;\n    uint pay;\n    Shipment shipment;\n\n    bool init;\n    bool payed;\n  }\n\n  constructor() {\n    owner = msg.sender;\n  }\n\n  mapping (uint => Order) orders;\n\n  uint orders_size;\n\n  event orderSent(address buyer, uint orderid, string product, uint price, uint pay, bool init, bool payed);\n  event orderApproved(address buyer, uint orderid);\n  event shipmentAdded(address buyer, uint orderid);\n  event orderDelivered(address buyer, uint orderid);\n\n  function sendOrder(string memory product) external  {\n\n    orders[orders_size] = Order(msg.sender, orders_size, product, 0, 0, Shipment(address(0), 0), false, false);\n\n    emit orderSent(msg.sender, orders_size, product, 0, 0, false, false);\n    orders_size++;\n  }\n\n  function initOrder(uint orderid) external {\n    require(msg.sender == owner);\n\n    orders[orderid].init = true;\n\n    emit orderApproved(orders[orderid].buyer, orderid);\n  }\n\n  function sendPay(uint orderid) payable public{\n    require(orders[orderid].buyer == msg.sender);\n\n    require(orders[orderid].init);\n\n    orders[orderid].pay = msg.value;\n\n    if(orders[orderid].pay == orders[orderid].price + orders[orderid].shipment.price){\n      orders[orderid].payed = true;\n    }\n  }\n\n  function addShipment(uint orderid, address courier, uint price, uint shipment_price) external {\n    require(msg.sender == owner);\n    require(orders[orderid].init);\n\n    orders[orderid].price = price;\n    orders[orderid].shipment = Shipment(courier, shipment_price);\n\n    emit shipmentAdded(orders[orderid].buyer, orderid);\n  }\n\n  function delivered(uint orderid) external payable {\n    require(msg.sender == orders[orderid].shipment.courier);\n    require(orders[orderid].init);\n    require(orders[orderid].payed);\n\n    emit orderDelivered(orders[orderid].buyer, orderid);\n\n    payable(owner).transfer(orders[orderid].price);\n\n    payable(orders[orderid].shipment.courier).transfer(orders[orderid].shipment.price);\n  }\n\n  function queryOrder(uint _orderid) external view returns (address buyer, uint orderid, string memory product, uint price, uint pay, bool init, bool payed){\n    return (orders[_orderid].buyer, orders[_orderid].orderid, orders[_orderid].product, (orders[_orderid].price + orders[_orderid].shipment.price), orders[_orderid].pay, orders[_orderid].init, orders[_orderid].payed);  \n  }\n\n}\n",
  "sourcePath": "C:\\Users\\stolo\\Desktop\\uni\\blockchain\\Dapp\\contracts\\Deal.sol",
  "compiler": {
    "name": "solc",
    "version": "0.8.10+commit.fc410830.Emscripten.clang"
  },
  "schemaVersion": "3.4.3",
  "updatedAt": "2021-12-15T21:20:04.634Z",
  "networkType": "ethereum",
  "devdoc": {
    "kind": "dev",
    "methods": {},
    "version": 1
  },
  "userdoc": {
    "kind": "user",
    "methods": {},
    "version": 1
  }
}